{
  "_format": "hh-sol-artifact-1",
  "contractName": "BoardColor",
  "sourceName": "contracts/Cell.sol",
  "abi": [
    {
      "inputs": [],
      "stateMutability": "nonpayable",
      "type": "constructor"
    },
    {
      "inputs": [],
      "name": "getAllArray",
      "outputs": [
        {
          "internalType": "uint8[7][5]",
          "name": "",
          "type": "uint8[7][5]"
        }
      ],
      "stateMutability": "view",
      "type": "function"
    },
    {
      "inputs": [
        {
          "internalType": "uint8",
          "name": "x",
          "type": "uint8"
        },
        {
          "internalType": "uint8",
          "name": "y",
          "type": "uint8"
        }
      ],
      "name": "getCellColor",
      "outputs": [
        {
          "internalType": "string",
          "name": "",
          "type": "string"
        }
      ],
      "stateMutability": "view",
      "type": "function"
    },
    {
      "inputs": [
        {
          "internalType": "uint8",
          "name": "x",
          "type": "uint8"
        },
        {
          "internalType": "uint8",
          "name": "y",
          "type": "uint8"
        },
        {
          "internalType": "enum BoardColor.Color",
          "name": "_color",
          "type": "uint8"
        }
      ],
      "name": "setCellColor",
      "outputs": [],
      "stateMutability": "nonpayable",
      "type": "function"
    }
  ],
  "bytecode": "0x60806040523480156200001157600080fd5b5060006001905060005b60058160ff161015620001065760005b828260ff166005811062000044576200004362000183565b5b505060078160ff161015620000ef576200008782826040516020016200006c929190620001fb565b6040516020818303038152906040526200014e60201b60201c565b838360ff1660058110620000a0576200009f62000183565b5b018260ff1660078110620000b957620000b862000183565b5b602091828204019190066101000a81548160ff021916908360ff1602179055508080620000e6906200025a565b9150506200002b565b508080620000fd906200025a565b9150506200001b565b50336000806101000a81548173ffffffffffffffffffffffffffffffffffffffff021916908373ffffffffffffffffffffffffffffffffffffffff160217905550506200032b565b600080828051906020012060001c905060016004826200016f9190620002b7565b6200017b9190620002ef565b915050919050565b7f4e487b7100000000000000000000000000000000000000000000000000000000600052603260045260246000fd5b600060ff82169050919050565b60008160f81b9050919050565b6000620001d982620001bf565b9050919050565b620001f5620001ef82620001b2565b620001cc565b82525050565b6000620002098285620001e0565b6001820191506200021b8284620001e0565b6001820191508190509392505050565b7f4e487b7100000000000000000000000000000000000000000000000000000000600052601160045260246000fd5b60006200026782620001b2565b915060ff82036200027d576200027c6200022b565b5b600182019050919050565b7f4e487b7100000000000000000000000000000000000000000000000000000000600052601260045260246000fd5b6000620002c482620001b2565b9150620002d183620001b2565b925082620002e457620002e362000288565b5b828206905092915050565b6000620002fc82620001b2565b91506200030983620001b2565b9250828201905060ff8111156200032557620003246200022b565b5b92915050565b610880806200033b6000396000f3fe608060405234801561001057600080fd5b50600436106100415760003560e01c80634d4044551461004657806359ad195f14610064578063fc0ab06214610080575b600080fd5b61004e6100b0565b60405161005b9190610565565b60405180910390f35b61007e600480360381019061007991906105d7565b610156565b005b61009a6004803603810190610095919061062a565b610255565b6040516100a791906106fa565b60405180910390f35b6100b86103c2565b6001600580602002604051908101604052809291906000905b8282101561014d57838201600780602002604051908101604052809291908260078015610139576020028201916000905b82829054906101000a900460ff1660ff16815260200190600101906020826000010492830192600103820291508084116101025790505b5050505050815260200190600101906100d1565b50505050905090565b60008054906101000a900473ffffffffffffffffffffffffffffffffffffffff1673ffffffffffffffffffffffffffffffffffffffff163373ffffffffffffffffffffffffffffffffffffffff16146101e4576040517f08c379a00000000000000000000000000000000000000000000000000000000081526004016101db90610768565b60405180910390fd5b60018160038111156101f9576101f8610788565b5b61020391906107e6565b60018460ff166005811061021a5761021961081b565b5b018360ff16600781106102305761022f61081b565b5b602091828204019190066101000a81548160ff021916908360ff160217905550505050565b60606102a260018460ff16600581106102715761027061081b565b5b018360ff16600781106102875761028661081b565b5b602091828204019190069054906101000a900460ff166102aa565b905092915050565b606060028260ff16036102f4576040518060400160405280600581526020017f626c61636b00000000000000000000000000000000000000000000000000000081525090506103bd565b60038260ff160361033c576040518060400160405280600381526020017f726564000000000000000000000000000000000000000000000000000000000081525090506103bd565b60048260ff1603610384576040518060400160405280600481526020017f626c75650000000000000000000000000000000000000000000000000000000081525090506103bd565b6040518060400160405280600581526020017f776869746500000000000000000000000000000000000000000000000000000081525090505b919050565b6040518060a001604052806005905b6103d96103ef565b8152602001906001900390816103d15790505090565b6040518060e00160405280600790602082028036833780820191505090505090565b600060059050919050565b600081905092915050565b6000819050919050565b600060079050919050565b600081905092915050565b6000819050919050565b600060ff82169050919050565b61046781610451565b82525050565b6000610479838361045e565b60208301905092915050565b6000602082019050919050565b61049b81610431565b6104a5818461043c565b92506104b082610447565b8060005b838110156104e15781516104c8878261046d565b96506104d383610485565b9250506001810190506104b4565b505050505050565b60006104f58383610492565b60e08301905092915050565b6000602082019050919050565b61051781610411565b610521818461041c565b925061052c82610427565b8060005b8381101561055d57815161054487826104e9565b965061054f83610501565b925050600181019050610530565b505050505050565b60006104608201905061057b600083018461050e565b92915050565b600080fd5b61058f81610451565b811461059a57600080fd5b50565b6000813590506105ac81610586565b92915050565b600481106105bf57600080fd5b50565b6000813590506105d1816105b2565b92915050565b6000806000606084860312156105f0576105ef610581565b5b60006105fe8682870161059d565b935050602061060f8682870161059d565b9250506040610620868287016105c2565b9150509250925092565b6000806040838503121561064157610640610581565b5b600061064f8582860161059d565b92505060206106608582860161059d565b9150509250929050565b600081519050919050565b600082825260208201905092915050565b60005b838110156106a4578082015181840152602081019050610689565b60008484015250505050565b6000601f19601f8301169050919050565b60006106cc8261066a565b6106d68185610675565b93506106e6818560208601610686565b6106ef816106b0565b840191505092915050565b6000602082019050818103600083015261071481846106c1565b905092915050565b7f4e6f74204f776e65720000000000000000000000000000000000000000000000600082015250565b6000610752600983610675565b915061075d8261071c565b602082019050919050565b6000602082019050818103600083015261078181610745565b9050919050565b7f4e487b7100000000000000000000000000000000000000000000000000000000600052602160045260246000fd5b7f4e487b7100000000000000000000000000000000000000000000000000000000600052601160045260246000fd5b60006107f182610451565b91506107fc83610451565b9250828201905060ff811115610815576108146107b7565b5b92915050565b7f4e487b7100000000000000000000000000000000000000000000000000000000600052603260045260246000fdfea2646970667358221220d2dc4963ebb4698634612c4877d6cb982fdae8f455024c0428799c3b04272f4464736f6c63430008130033",
  "linkReferences": {},
  "deployedLinkReferences": {}
}